:020000040800F2
:1000000000280020090200085902000859020008CF
:1000100059020008590200085902000800000000B7
:10002000000000000000000000000000590200086D
:100030005902000800000000590200085902000897
:100040005902000859020008590200085902000824
:100050005902000859020008590200085902000814
:100060005902000859020008590200085902000804
:1000700059020008590200085902000859020008F4
:1000800059020008590200085902000859020008E4
:1000900059020008590200085902000859020008D4
:1000A00059020008590200085902000859020008C4
:1000B00059020008590200085902000859020008B4
:1000C00059020008590200085902000859020008A4
:1000D0005902000859020008590200085902000894
:1000E00059020008590200080000000059020008E7
:1000F0005902000859020008590200085902000874
:100100005902000859020008590200085902000863
:100110005902000859020008590200085902000853
:100120005902000859020008590200085902000843
:1001300010B5054C237833B9044B13B10448AFF321
:1001400000800123237010BD00000020000000008B
:10015000A402000808B5034B1BB103490348AFF3E1
:10016000008008BD0000000004000020A402000878
:1001700080B500AF124B1B68114A43F004031360B3
:10018000104B104A1B6813600E4B1B680D4A43F45A
:10019000801313600C4B1B680B4A43F02003136061
:1001A0004FF4FA7000F012F8074B1B68064A23F070
:1001B000200313604FF4FA7000F008F8EAE700BF7C
:1001C00018100240000801400C08014080B485B0BE
:1001D00000AF78600023FB600DE00023FB6002E0CD
:1001E000FB680133FB60FB6840F67A429342F7DD1F
:1001F0007B68013B7B607B68002BEEDC00BF143723
:10020000BD4680BC704700000D488546AFF30080B6
:100210000C480D490D4A002302E0D458C450043361
:10022000C4188C42F9D30A4A0A4C002301E0136037
:100230000432A242FBD300F011F8FFF799FFFEE76A
:10024000002800200000002000000020C402000858
:10025000000000201C000020FEE7000070B5002513
:100260000C4E0D4CA41BA410A54209D100F01AF8A5
:1002700000250A4E0A4CA41BA410A54205D170BD4E
:1002800056F8253098470135EEE756F8253098475F
:100290000135F2E7BC020008BC020008BC020008FD
:1002A000C0020008F8B500BFF8BC08BC9E46704705
:0C02B000F8B500BFF8BC08BC9E467047C3
:0402BC0055010008E0
:0402C0003101000800
:0400000508000209E4
:00000001FF
